:020000040800F2
:1000000060410020CD020008AD500008994700086B
:10001000A9500008B11E0008B15F000800000000F0
:100020000000000000000000000000003502000891
:10003000A52100080000000079020008FD58000812
:10004000E7020008E7020008E7020008E7020008EC
:10005000E7020008E7020008E7020008E7020008DC
:10006000E7020008E7020008E7020008E7020008CC
:10007000E7020008B51E0008E7020008E7020008D2
:10008000E7020008E7020008E7020008E7020008AC
:10009000E7020008E7020008E7020008E70200089C
:1000A000E7020008E7020008E7020008E70200088C
:1000B000E7020008E7020008E7020008E70200087C
:1000C000E7020008E7020008E7020008E70200086C
:1000D000E7020008815F0008915F0008A15F000847
:1000E000E7020008E7020008E702000800F002F853
:1000F00000F090F80AA090E8000C82448344AAF132
:100100000107DA4501D100F085F8AFF2090EBAE82F
:100110000F0013F0010F18BFFB1A43F0010318473B
:1001200094960000B4960000103A24BF78C878C1B5
:10013000FAD8520724BF30C830C144BF04680C60ED
:10014000704700000023002400250026103A28BF35
:1001500078C1FBD8520728BF30C148BF0B60704739
:100160006E2900F0CB83702900F01D87662908F006
:10017000B285652908F0AF85672908F0AC8561294B
:1001800008F0AB8503681B0A28BF41F0800169298C
:1001900000F0E280642900F0DF80752900F0DC8047
:1001A0006F2900F0AA86782900F0E986E92900F095
:1001B0004586E42900F04286F52900F03F86EF29C4
:1001C00000F0A786F82900F0E8860368DB0928BF5D
:1001D00041F08001632901F03581732901F03A81F2
:1001E000E32901F04581F32901F04A81002070479D
:1001F0001FB500F015FF04000020002108F0E2FB0D
:10020000401C60600020002108F0C6FBE0601FBDBC
:1002100010B510BD01F0CEF91146FFF7E9FF06F069
:1002200033FA01F0F5F903B4FFF7F2FF03BC01F074
:10023000F9F90000224B19680868B0E8F00F80F364
:100240000988BFF36F8F4FF0000080F311884EF0E4
:100250000D0E70470000000006480068006880F33B
:10026000088862B661B6BFF34F8FBFF36F8F00DFB0
:1002700000BF00BF08ED00E0EFF30980BFF36F8F10
:100280000F4B1A6820E9F00F106008B54FF05000CE
:1002900080F31188BFF34F8FBFF36F8F07F094FC8B
:1002A0004FF0000080F31188BDE808401968086825
:1002B000B0E8F00F80F30988BFF36F8F704700BF7D
:1002C00038000020EFF305807047000009488047A0
:1002D00009480047FEE7FEE7FEE7FEE7FEE7FEE728
:1002E000FEE7FEE7FEE7FEE704480549034A054B43
:1002F000704700009B590008ED000008603D002099
:1003000060410020603D00201CB50C46064B7B443C
:1003100069460090204600F01AFD04460020694618
:1003200000F028FD20461CBD630A00000FB41CB578
:10033000084B06AA7B4469460090059800F007FD2B
:1003400004460020694600F015FD20461CBC5DF8FF
:1003500014FB00003D0A00002DE9F0410646002490
:1003600010687529314616A510D000F033FA002820
:1003700002DA404213A507E031688A0701D512A5C9
:1003800002E0490704D511A5012401E000F02BFA91
:1003900000210A2206F1240709E0B0FBF2FCB0FBC1
:1003A000F2F302FB1C00303078541846491C002838
:1003B000F3D123462A463046BDE8F04100F045BA65
:1003C000000000002D0000002B00000020000000B5
:1003D0002DE9F05F894604464FF0000ADFF874B15A
:1003E000FB44C0F820A02046E1688847002874D06C
:1003F000252806D0D4E901219047206A401C2062BC
:10040000F1E700265F462046E16888472028054638
:1004100007DB312D05D2781910F8200C08B10643FE
:10042000F1E7B00701D526F00406C4F81CA00027A8
:10043000C4F818A02A2D09D0284605F086FF38B345
:1004400004EB8708303DC8F8185019E059F8041B30
:10045000204604EB87029161E1688847012F054639
:1004600018D1E069002820DA26F020061DE0D8F82F
:10047000180000EB800005EB40003038C8F8180089
:100480002046E1688847054605F05FFF0028EED169
:10049000012F0AD02E2D08D12046E16888477F1C05
:1004A0000546022F46F02006C4DBA069002803DAC7
:1004B000404246F00106A061F00701D026F0100688
:1004C0006C2D0BD0682D09D04C2D39D06A2D35D02C
:1004D000742D35D07A2D33D016E038E0E1682F4600
:1004E00020468847B842054609D16C2F26D04FF4E4
:1004F0008060E168064320468847054604E06C2F8B
:100500001AD04FF4807006430DB3A5F141001928AD
:1005100002D8203546F400664A4629462046266021
:100520004E46FFF71DFE80B101280BD0F61D26F0C8
:10053000070000F1080956E74020E4E78020D8E7EB
:100540000020D6E706F104094DE7284652E7206A65
:10055000BDE8F09FC692000030B505460B462A461E
:1005600013F8014B12F8010B08B1A042F8D01CB1EE
:10057000002802D06D1CF1E7284630BD10B5431CA1
:1005800002E010F8011B71B18107FAD14FF001327E
:1005900002C88C1A8C4314EAC211F9D0C01A0A0698
:1005A00003D0C01E10BDC01A10BD0A0401D0801EA9
:1005B00010BD0902FCD0401E10BD421E12F8013FC2
:1005C000002BFBD111F8013B002B02F8013BF9D1C4
:1005D0007047032A40F2308010F0030C00F01580C1
:1005E00011F8013BBCF1020F624498BF11F801CB36
:1005F00000F8013B38BF11F8013BA2F1040298BF9B
:1006000000F801CB38BF00F8013B11F0030300F004
:10061000D584083AC0F0088051F8043B083A51F8F4
:1006200004CBA0E80810F5E7121D5CBF51F8043BAD
:1006300040F8043BAFF30080D20724BF11F8013B20
:1006400011F801CB48BF11F8012B24BF00F8013B82
:1006500000F801CB48BF00F8012B704702F0FF0300
:1006600043EA032242EA024200F002B84FF00002DD
:100670000429C0F0128010F0030C00F01B80CCF1B4
:10068000040CBCF1020F18BF00F8012BA8BF20F822
:10069000022BA1EB0C0100F00DB85FEAC17C24BF76
:1006A00000F8012B00F8012B48BF00F8012B704720
:1006B0004FF0000200B5134694469646203922BFFB
:1006C000A0E80C50A0E80C50B1F12001BFF4F7AF46
:1006D000090728BFA0E80C5048BF0CC05DF804EB28
:1006E000890028BF40F8042B08BF704748BF20F896
:1006F000022B11F0804F18BF00F8012B704700004B
:100700004FF0013C50F8042B51F8043B9A4221D1A0
:10071000A2EB0C03934313EACC1317D150F8042B2C
:1007200051F8043B9A4215D1A2EB0C03934313EA10
:10073000CC130BD150F8042B51F8043B9A4209D149
:10074000A2EB0C03934313EACC13DBD04FF0000071
:10075000704700BFD01A01BAB1FA81F101F0180157
:1007600022FA01F0CB40C1F12001DBB2C0B2C01AC5
:100770002CFA01F3D11A914311EAC311E6D1704763
:1007800070477047704770B5044685690068C106B8
:1007900001D5302600E02026C00707D070BDD4E97F
:1007A000012130469047206A401C20626D1EF6D51C
:1007B00070BD70B5044685690078C00707D170BD6B
:1007C000D4E9012120209047206A401C20626D1E40
:1007D000F6D570BD09684A0501D540B27047C90514
:1007E000FCD500B2704709684A0501D5C0B2704710
:1007F000C905FCD580B2704770B50C460546012A84
:1008000005D02878800600D5EA69002302E001239C
:1008100005E05B1C934202D2E05C0028F9D1A86994
:10082000E618C01AA861286A184428622846FFF70B
:10083000AAFF04E0D5E9012114F8010B9047B44266
:10084000F8D32846FFF7B5FF70BD2DE9F0470D46F8
:1008500099469246044600F124080168880604D5AA
:10086000E06921F01001216000E00120A84201DDD3
:10087000471B00E00027A1697A1902EB0900081A5A
:10088000A0612078C00602D42046FFF77CFF002636
:1008900008E0D4E901211AF806009047206A401CBC
:1008A000761C20624E45F4DB2078C0060AD520462F
:1008B000FFF769FF06E0D4E9012130209047206A64
:1008C000401C2062381EA7F10107F4DC07E0D4E9E0
:1008D000012118F805009047206A401C2062281E5C
:1008E000A5F10105F3DC2046FFF763FF2078000641
:1008F00002D50220BDE8F0870120FBE711680268FD
:10090000006A530501D508700AE0D30501D50880B7
:1009100006E0130603D5C217C1E9000200E0086033
:100920000120704770472DE9FF4F0C461E464FF0DF
:10093000FF378BB0D2E90001DDF860800A908A466B
:10094000C1F30A5505B93D46002108464FF00000A5
:10095000BAF1000F00F4400005DA00EB80004FF41C
:10096000400101EA50004FEA9059B9F1010F00DD52
:10097000B9460A9850EA4A000ED044F61050A5F243
:10098000FF3545432F14B8F1000F1ED07542291EC4
:100990001EDDC9F100021CE0B8F1010F4FF00000AC
:1009A00001D0302103E0F24305E02154401CB04265
:1009B000FBDB30460022002121540B99C1F808804E
:1009C000C1E900200FB0BDE8F08FBD1B6D1CDEE754
:1009D0004A4600DA694206A800F056FD06AB93E8E5
:1009E000070003AB83E8070050460A9900F021FE98
:1009F0008DE80700A0F500501F3800900398002DE7
:100A00000ADD42F21F014A460844002303A903906D
:100A1000684601F08AF809E0A0F500504A461F3800
:100A2000002303A90390684601F094F88DE80700BD
:100A30000004000C03D04FF0FF30410800E01046E6
:100A4000B8F1000F03D00022009215461EE0751E7B
:100A500005D400F0E9FA303262556D1EF9D5B3467F
:100A60000122084302D000227F1C04E020783028B5
:100A700001D100227F1E002A099784D01DE0112D8C
:100A800007DA00F0D1FA303262556D1C50EA0102EB
:100A9000F5D1084302D00098C8B10EE00021681ECD
:100AA00005E0235C625C63542254401E491C814271
:100AB000F7DBAB46A81B401E0990002004F80B0092
:100AC0000B98099AC0F80880C0E9002B7AE7112634
:100AD0004FF0000857E72DE9F04F88460446D21D35
:100AE00022F0070191B0D1E90001CDE90A0105F03A
:100AF000F9FB02460B98C00F01D02D2007E02068BB
:100B0000810701D52B2002E0202101EAC000032A41
:100B1000099001D0072A05DB03464146204600F034
:100B200047FC0BE12078800601D5E06900E0062053
:100B3000B8F1650F814606D0B8F1660F18D0B8F14C
:100B4000670F70D131E00020B9F1110F009001DB87
:100B5000112301E009F101030AAA01A90CA8FFF77A
:100B6000E2FEDDE90C70002609F10105834647E04D
:100B700001204B4600904FF000470AAA01A90CA89B
:100B8000FFF7D1FEDDE90DB00C995D46002610B9E6
:100B900009F101000D18B9EB050003D4C0F1FF36CF
:100BA00009F10105A5EB09002BE0B9F1010F01DA0C
:100BB0004FF001090020B9F1110F0090484601DD06
:100BC000112300E003460AAA01A90CA8FFF7ABFE17
:100BD000DDE90C704D4600268346207800070AD4D4
:100BE000AB4500DA5D4601A8012D04DD411911F87D
:100BF000011C302907D04F4502DA17F1040F04DA3F
:100C0000012082460FE06D1EEEE7002F02DCED1B97
:100C10003E4403E0781CA84200DD7D1CB81B00F1B7
:100C2000010A4FF000472078000703D4AA4501DBF2
:100C30004FF0FF3A0021B7F1004F0DF143088DF856
:100C4000431024D002202B23002F01DA7F422D23D2
:100C50000A21021EA0F1010000DC5FB197FBF1FC4C
:100C600097FBF1F201FB1C7C17460CF1300C08F8E5
:100C700001CDEEE7A8F1010003702188090501D537
:100C8000452100E06521A0F1010800F8011C099848
:100C90000FA9A1EB0807FF1D00B10120411901EBCD
:100CA000EA70A1693844081A401EA0612078C00685
:100CB00002D42046FFF767FD099828B1D4E9012145
:100CC0009047206A401C20622078C00622D520462A
:100CD000FFF759FD1EE0002E04DBB34502DD01A83D
:100CE000805D00E03020D4E901219047206A401C5B
:100CF0002062761CAAF101005FEA000A0AD100F026
:100D00008FF9C0680168405CD4E901219047206AEE
:100D1000401C2062281EA5F10105DCDC07E0D4E9B7
:100D2000012118F8010B9047206A401C2062381EF0
:100D3000A7F10107F3DC2046FFF73BFD032011B0CC
:100D400041E6000001694A1C02610878704700B55D
:100D50008FB0CDE901310021059105497944CDE9F4
:100D6000031011466846FFF733FB0FB000BD0000CB
:100D7000E5FFFFFF0A6802F8010B0A6070470000F8
:100D80002DE9FF5F15468A460446DFF8AC80F8443B
:100D90000027D8E900103E46CDE9001010E03AF8EF
:100DA00016106A4602A800F0E1FB411C07D021782A
:100DB000890603D5E269391891420DD80744761C9B
:100DC0002078800602D5E069B84205DDAE42E6DB58
:100DD0003AF816000028E2D1A069C01BA0612046A5
:100DE000FFF7D1FCD8E90010CDE90010002017E092
:100DF0003AF818106A4602A800F0B8FBB0F1FF3FBD
:100E000081460BD000250DF1080B05E0D4E9012146
:100E10001BF8050090476D1C4D45F7D308F1010004
:100E2000B0428046E4DB206A384420622046FFF767
:100E3000C0FCBDE8FF9F00002A8900002DE9F041B9
:100E40008046D21D22F007020025D2E90002F529D2
:100E500015A614D0011E72F1000106DA0023D0EBB2
:100E6000030063EB020211A608E0D8F800108B071C
:100E700001D50FA602E0490701D50EA601251146AE
:100E8000002408F1240704E000F0CEF830323A558F
:100E9000641C50EA0102F7D12B46324621464046F7
:100EA000BDE8F041FFF7D1BC000000002D000000BC
:100EB0002B0000002000000030B4002100F12404C9
:100EC00008E002F00705D208303542EA4372DB0839
:100ED0006554491C52EA0305F3D10468002310A2AB
:100EE000250707D5A40600D421B1C46901230DA2AA
:100EF000641EC46130BCFFF7A8BC10B5044621468F
:100F00001068FFF770FC02462046BDE81040002341
:100F1000D2E7D21D22F00701D1E90023CCE700007F
:100F20000000000030000000F0B40D460188090503
:100F300002D5214C7C4402E01F4C7C440E3400213D
:100F400000F1240608E002F00F071209E75D42EA0B
:100F500003721B097754491C52EA0307F3D1027844
:100F60000023120704D5702D06D009B102231134D5
:100F70002246F0BCFFF769BC01231034F8E770B5D6
:100F800004460D4621461068FFF72DFC024629460F
:100F90002046BDE870400023C6E7D21D22F00703BB
:100FA000D3E90023C0E70368126843F0200303601D
:100FB0000823C3610023B7E78C87000010B5203AEF
:100FC000C0F00B80B1E81850203AA0E81850B1E802
:100FD0001850A0E81850BFF4F5AF5FEA027C24BFB8
:100FE000B1E81850A0E8185044BF18C918C0BDE8AF
:100FF00010405FEA827C24BF51F8043B40F8043B78
:1010000008BF7047D20728BF31F8023B48BF11F82C
:10101000012B28BF20F8023B48BF00F8012B704786
:1010200000487047203D002030B5B0F10A024FEA79
:10103000900E71F100034EEA817EB0EB0E0061EB81
:1010400091014FEA101E4EEA017E10EB0E0041EBBB
:1010500011114FEA102E4EEA016E10EB0E0041EB1B
:1010600011214FEA104E4EEA014E10EB0E0041EBFB
:101070001141401841F100014FEAD00040EA4170AF
:101080004FEAD10110EB80054FEA810444EA9074E5
:1010900044EB01046D1944EB0404521BA3414FF0CF
:1010A000000348BF0A3200D530BD401C41F10001A9
:1010B00030BD00002DE9F04F04460D46D21D22F050
:1010C000070089B0D0E900974846394605F00AF98B
:1010D0000246F80F01D02D2307E02068810701D5D3
:1010E0002B2302E0202101EAC0038DF820300BB150
:1010F000012000E00020032A824601D0072A04DBF9
:101100002946204600F054F93FE12078800601D4BA
:101110000D2500E0E569C7F30A560D2D49DA0021D7
:101120004FEA175B08464FF00000002F00F4400024
:1011300007DA00EB80004FF4400100EBD07001EAC9
:1011400060008115012901DD4FF0FF3100224FEAD7
:10115000850CBCF1180F06D31346ACF118004FF004
:101160008052C24003E04FF4801323FA0CF30CF1D9
:101170000C0CBCF1200F04D3ACF1200C09FA0CF0DC
:1011800001E007FA0CF000294FF0004801DD18B922
:101190000FE00ED140450CD319EB02095F4121B994
:1011A000404502D19F4329EA0209BBEB175F00D0FB
:1011B000761C2088000502D57B48784402E07A48F6
:1011C0007844193808AA302302F80A30037C0AF15F
:1011D0000101002E0AF1020A53546A4602DC4FF064
:1011E000300101E04FF031014FF001088DF800109F
:1011F00002D0A6F2FF3603E059EA470100D06B4E59
:10120000002D02DC2178090704D54FF002082E21B9
:101210008DF80110C44600210BE0C7F303433F01E2
:10122000C35C491C6D1E02F80830052908F101084D
:1012300001DA002DF1DC00210CE000EB1973491CF0
:101240001B786D1E082902F808304FEA091908F1C9
:10125000010801DA002DF0DC21688B0602D516E0CA
:10126000A8F10108E04505DD02EB080313F8013C95
:10127000302BF5D0B8F1000F09DD02EB080313F8AD
:10128000013C2E2B03D1090701D4A8F10108002D40
:1012900005DD3E2102F808106D1E08F10108407CB2
:1012A000002E02F8080008F1010804DA2D20764229
:1012B00002F8080002E02B2002F808000A214FF48F
:1012C0007A70864208F101080BDB96FBF0F33033AD
:1012D00002F8083096FBF0F308F1010800FB1366F2
:1012E00001E0642E0CDB642096FBF0F3303302F84F
:1012F000083096FBF0F308F1010800FB136601E0EB
:101300000A2E06DB96FBF1F0303002F8080008F1F7
:10131000010896FBF1F001FB1060303002F8080084
:10132000A16908F1010808EB050202EB0A00081A9E
:10133000A0612078C00602D42046FFF724FA216A73
:1013400008AE01EB0A00206204E0D4E9012116F89E
:10135000010B9047BAF1010AF7D22078C00602D5F6
:101360002046FFF710FA6E4609E016F8010B3E28FA
:101370000FD0D4E901219047206A401C2062B8F1C7
:101380000108F2D22046FFF714FA09B00320BDE8A5
:10139000F08F206A2844206203E0D4E90121302044
:1013A00090476D1EEBD3F8E74185000002FCFFFF7C
:1013B0002DE9F0411F46044603260168072A01F47F
:1013C000006004DB08B116A505E016A503E008B12E
:1013D00015A500E015A521F010002060A069C01E31
:1013E000A0610FB1401EA0612046FFF7CCF94FB1BC
:1013F000D4E9012138469047206A401C2062C01C75
:10140000206206E0206AFAE7D4E9012115F8010B11
:101410009047761EF8D22046FFF7CBF9BDE8F08161
:101420004E414E006E616E00494E4600696E660088
:1014300010B5436913B1AFF3008001E0FFF7DCF9A9
:10144000012010BD127800F124010A7000224A70B8
:101450000122EDE711684FF0FF32E9E710B543696B
:1014600013B1AFF3008001E0FFF78AFC012010BD4B
:10147000128800F1240182840022C2840122EDE757
:1014800011684FF0FF32E9E72DE9F0478146164633
:101490008AB0354878440DC88DE80D00324878444C
:1014A000801C03AC0DC884E80D0041F69B30084455
:1014B000372190FBF1F290FBF1F5A5F1800501FBDE
:1014C00012041B3C02D56442012000E00020DFF83A
:1014D00098A080460027FA44AAF1BE0A0EE0E00771
:1014E0000AD03246684607EB470101230AEB810127
:1014F00000F030FB8DE8070064107F1C002CEED15B
:10150000194F7F44AE3F19E0E80715D007EB0410F0
:101510000DF1180A90E80E008AE80E00C068F0424B
:1015200001D1981908903246012306A903A800F0BA
:1015300011FB03AB83E807006D10641C002DE3D1A1
:101540004FF0010332466946B8F1000F03A802D0FC
:1015500000F0EBFA01E000F0FDFAC9E90001C9F87A
:1015600008200AB0BDE8F087F882000070B5164682
:101570000C46054600F044F8036893F80101012881
:1015800006D0FF2C0FD8185D68B101202C7070BDFB
:10159000D3F807013246214603F2071303442846D5
:1015A000BDE8704018474FF0FF3070BD00487047ED
:1015B000003D00207546FFF7F9FFAE46050069467D
:1015C000534620F00700854618B020B5FEF78CFE84
:1015D000BDE820404FF000064FF000074FF0000834
:1015E0004FF0000B21F00701AC46ACE8C009ACE8B5
:1015F000C009ACE8C009ACE8C0098D4670470000DE
:1016000010B5FFF70DFD001D10BD00BFB973000040
:1016100010B50446AFF300802046BDE81040FEF749
:1016200002BE000001491820ABBEFEE72600020002
:1016300070475FEA400C08BF91F0000F4FEA8C231F
:101640004FEAC12243EA51514FEA1C5018BF00F53E
:10165000F0404FEA300018BF41F000415FEA6C5C97
:1016600000F02980BCF1FF3F08BF40F08040704788
:10167000130C06BF12044FF0100C4FF0000C130EA9
:1016800004BF12020CF1080C130F04BF12010CF17D
:10169000040C930F04BF92000CF1020CD30F04BF93
:1016A00052000CF1010C11464FF00002A0F11F0096
:1016B000A0EB0C00704711F0004F08BF704731F0ED
:1016C00000413FF4D5AF0B0C06BF09044FF0100CDE
:1016D0004FF0000C0B0E04BF09020CF1080C0B0FAD
:1016E00004BF09010CF1040C8B0F04BF89000CF13D
:1016F000020CCB0F04BF49000CF1010CCCF120030C
:10170000A0EB0C0022FA03F302FA0CF241EA030107
:1017100000F10100704720F07F4C80EA030023F0C5
:101720007F47ACEB070303F57C5300F0004003F167
:10173000FF032DE980494FEA154B09B44FEA1443E2
:1017400025EA0B4E24EA03480FF2042606EB132782
:1017500049083E785FEA320203FB0667C7F50007D7
:1017600007FB06F64FEA54374FEAD64606F1020663
:1017700007FB066CCCF1005C4FEA1C472CEA074CD7
:1017800007FB06F40CFB06F504EB15464FEA96162C
:1017900034BF00204FF000404FEAD13706FB07FC72
:1017A0004FEA1C4C0CFB0BF7D21B03FB0CF761EB55
:1017B00007010CFB0EF7B0EB074072EB17420CFB76
:1017C00008F734BFA2EB0742B2EB074261EB1741C7
:1017D0004FEA0C444FEA910706FB07FC4FEA1C4C0A
:1017E0000CFB0BF7B0EBC74072EB573203FB0CF767
:1017F00034BFA2EBC742B2EBC74261EB57310CFBDF
:101800000EF7B0EBC70072EB57720CFB08F734BF52
:10181000A2EBC702B2EBC70261EB5771039F4FEA1D
:10182000816141EA921104EBCC044FEAD1374FEACF
:10183000826206FB07FC42EA90124FEA80604FEAA0
:101840001C4C0CFB0BF7D21B03FB0CF761EB0701E5
:101850000CFB0EF7B0EB074072EB17420CFB08F7DE
:1018600034BFA2EB0742B2EB074261EB17414FEAEC
:101870008C554FEA910704EB9C2406FB07FC4FEACA
:101880001C4C0CFB0BF7B0EBC74072EB573203FB61
:101890000CF734BFA2EBC742B2EBC74261EB573142
:1018A0000CFB0EF7B0EBC70072EB57720CFB08F79E
:1018B00034BFA2EBC702B2EBC70261EB577115EB65
:1018C0004C254FEA816141EA92114FEA82624FEA68
:1018D000D13742EA901206FB07FC44F100044FEABC
:1018E00080604FEA1C4C0CFB0BF7D21B03FB0CF780
:1018F00061EB07010CFB0EF7B0EB074072EB1742F0
:101900000CFB08F734BFA2EB0742B2EB074261EBD6
:10191000174115EB1C154FEA813141EA92414FEA1C
:10192000823242EA90424FEA80304FEA0C7644F12C
:10193000000448EA03434EEA0B484FF0000EB2EBB6
:10194000080C71EB030724BF624639464EEB0E0EBE
:101950004FF0000B0018524149414BEB0B0BB2EB1F
:10196000080C71EB03077BF1000B24BF624639467C
:101970004EEB0E0E4FF0000B0018524149414BEB5D
:101980000B0BB2EB080C71EB03077BF1000B24BFD0
:10199000624639464EEB0E0E51EA020718BF46F07A
:1019A000010616EB0E7655F1000254F1000103D545
:1019B000BDE88901BDE80088BDE88901BDE80048AF
:1019C000B619524141EB0101A3F101037047808038
:1019D0007F7E7D7C7B7A7978777676757473727189
:1019E00071706F6E6E6D6C6C6B6A6A696868676641
:1019F00066656464636362616160605F5F5E5E5DD3
:101A00005D5C5C5B5B5A5A59595858575756565546
:101A100055555454535352525251515050504F4FA8
:101A20004F4E4E4D4D4D4C4C4C4B4B4B4A4A4A49F8
:101A3000494948484847474747464646454545443B
:101A40004444444343434342424242414141002BC8
:101A50009C4630D477002BD01CB54FEA370703B42F
:101A60004FF010004FF01001BAF1000F06D0BCF19A
:101A7000000FDCBF40F0080040F008014FF000000C
:101A80000FBCBDE810400BF1010BBBF1010F08BF0B
:101A90005FEA170722BF12F1010211F101014FF0B5
:101AA000004143F1000300F0004043EA00007047AA
:101AB000F9D35708D0E746EA064613F1400F4FEA3C
:101AC00016461FDD13F1200FDFBF16430A46002123
:101AD00020335B42BED0C3F1200746EA064602FA35
:101AE00007F74FEA164646EA0706C3F1200722FA2F
:101AF00003F201FA07F721FA03F14FF0000342EA7B
:101B00000702A7E746EA020646EA06464FEA1646F5
:101B100046EA0106BCBF46EA0646360C4FF0000313
:101B20004FF000024FF0000194E72DE9804C9A46F7
:101B3000934670B491E8380007C831EA400C48BFBA
:101B400034EA430C03D5FFF7E6FDFFF780FFF0BC56
:101B5000BDE8008C2DE9804C9A46934670B491E81C
:101B6000380007C810F0804F08BF13F0804F03D132
:101B700000F005F8FFF76BFFF0BCBDE8008C20F02B
:101B80007F4780EA030023F07F4C07EB0C03A3F5AB
:101B90007C5300F00040A3F1FE0392F0000F00F030
:101BA000B38095F0000F00F077802DE901494FEAEE
:101BB00011404FEA144621EA004800FB06FC24EAE3
:101BC000064708FB06F607FB08F800FB07F718EBCB
:101BD00006484CEB164C4FEA124B18EB07484FEAFD
:101BE00015464CEB174022EA0B4E0BFB06FC25EA90
:101BF00006470EFB06F607FB0EFE0BFB07F71EEB78
:101C0000064E4CEB164C4FF000061EEB074E4CEB0D
:101C1000174B18EB0B0840F1000018EB0E0B58EBBC
:101C2000000840F100008F1A4FF000013CBFC9438B
:101C3000661B14BFB5EB040C00213CBFC943F61B67
:101C40004FEA17444EEA8E0E27EA04454FEA1C4736
:101C500004FB07622CEA074C05FB07F70CFB05F6B3
:101C600004FB0CFC16EB074642EB174216EB0C4646
:101C700042EB1C421BEB060658EB0202414146EACE
:101C80009E0601D5BDE80189B619524141EB01011B
:101C9000A3F10103BDE801894FEA14454FEA11475A
:101CA00024EA054621EA074C05FB07F406FB07F783
:101CB0000CFB06F105FB0CFC11EB074144EB174450
:101CC0004FEA124711EB0C4144EB1C4422EA074C4B
:101CD00005FB07F206FB07F70CFB06F605FB0CFC01
:101CE00016EB074642EB174216EB0C4642EB1C453F
:101CF0006A1854F1000148BF7047B619524141EBD0
:101D00000101A3F10103704795F0000F37D04FEAAE
:101D100011424FEA144721EA024624EA074C02FB2B
:101D200007F106FB07F70CFB06F402FB0CFC14EBB7
:101D3000074441EB17414FEA154714EB0C4441EBC4
:101D40001C4125EA074C02FB07F506FB07F70CFBD5
:101D500006F602FB0CFC16EB074645EB174516EBA7
:101D60000C4645EB1C42121951F1000148BF704767
:101D7000B619524141EB0101A3F1010370474FEA4B
:101D800014454FEA114724EA054621EA074C05FBB2
:101D900007F106FB07F70CFB06F24FF0000605FB08
:101DA0000CFC12EB074241EB174112EB0C4251EBDA
:101DB0001C4148BF7047921841EB0101A3F1010398
:101DC000704770B5044600252068806800F0010067
:101DD00018B32068806820F001002168886001F055
:101DE00031FA054613E001F02DFA401B02280ED906
:101DF0002068806800F0010048B1A06A40F010003F
:101E0000A062E06A40F00100E062012070BD20683D
:101E1000806800F001000028E5D10020F6E700000E
:101E200038B504460025002000902068806800F046
:101E3000010078BB2068806840F00100216888605C
:101E4000194800681949B0FBF1F0009002E00098D1
:101E5000401E009000980028F9D101F0F3F90546E2
:101E600019E001F0EFF9401B022814D920688068BE
:101E700000F0010078B9A06A40F01000A062E06AAA
:101E800040F00100E06200BF002084F8240000BFA1
:101E9000012038BD05E02068806800F001000028BE
:101EA000DFD00020F5E700003400002040420F00A2
:101EB00000BFFEE710B5024800F014FF10BD00009F
:101EC000F80100201FB500200090019002900390BF
:101ED000402000900020019002906946014801F0E6
:101EE00009F81FBD000C01401FB5002000900190B3
:101EF0000290039040200090012001900020029069
:101F0000032003906946044800F0F4FF00224021BA
:101F1000014801F091F91FBD000C014000B585B0EA
:101F20000020019002900390049000BF184880693F
:101F300040F00400164988610846806900F00400FA
:101F4000009000BF00BF00BF0846806940F0080055
:101F500088610846806900F00800009000BF00BF5B
:101F6000A020019001200290002003900320049003
:101F700001A9084800F0BEFF00222021054801F019
:101F80005BF900228021034801F056F905B000BD3D
:101F900000100240000C014010B500F0AFF82A48D4
:101FA000007800F00F0028490978091101EB810140
:101FB00000EB4100254988712348407800F00F006C
:101FC00021494978091101EB810100EB41001F49CA
:101FD00048711D48807800F00F001B49897809116D
:101FE00001EB810100EB4100184908711648C078E7
:101FF00000F00F001449C978091101EB810100EBD1
:1020000041001249C8701048007900F00F000E49D5
:102010000979091101EB810100EB41000B4988703E
:1020200009484079C8710848807900F00F000649D6
:102030008979091101EB810100EB410000F5FA609B
:102040000249088010BD0000D2000020CA00002014
:102050002DE9F04105462F4600260024002280216C
:10206000254801F0E9F800222021234801F0E4F896
:102070000A2004F00FFA012280211F4801F0DCF849
:102080000A2004F007FA384600F060F8FFF71AFF5C
:102090000A2004F0FFF900BF1CE00A2004F0FAF95E
:1020A000641001222021144801F0C6F80A2004F02F
:1020B000F1F900222021104801F0BEF80A2004F0B6
:1020C000E9F940210C4801F0A5F808B144F080047A
:1020D000701CC6B2082EE0DB0A2004F0DBF90022F7
:1020E0008021054801F0A8F800224021024801F0B3
:1020F000A3F82046BDE8F081000C014010B5812016
:10210000FFF7A6FF104908708320FFF7A1FF0E49D3
:1021100048708520FFF79CFF0B4988708720FFF7E8
:1021200097FF0949C8708920FFF792FF0649087197
:102130008B20FFF78DFF044948718D20FFF788FF42
:102140000149887110BD0000D200002070B504461E
:10215000002500222021124801F06EF8FFF7C4FE8E
:1021600000BF1AE0002220210D4801F065F804F0BC
:10217000010028B101224021094801F05DF804E086
:1021800000224021064801F057F80122202104488E
:1021900001F052F86410681CC5B2082DE2DB70BD76
:1021A000000C01407047000000B585B000BF00BFC3
:1021B0001848806940F00400164988610846806923
:1021C00000F00400009000BF00BF00BF002001909D
:1021D00002900390049001200290002003900320BD
:1021E00004904FF40040019001A90B4800F082FEDA
:1021F00000224FF40041084801F01EF84FF4FA6045
:1022000004F03EF90122D103034801F015F805B0AE
:1022100000BD00000010024000080140A7E0544843
:10222000007800287DD053A15148FEF795F980B180
:1022300001205249086000BF00220103504800F00D
:10224000FBFF00BF00204F490880C8214848FEF727
:102250000DFA4DA14648FEF77FF980B100204749AD
:10226000086000BF01221103454800F0E5FF00BFF0
:10227000002044490880C8213D48FEF7F7F945A1F0
:102280003B48FEF769F9B0B10120444908605A2083
:1022900005F0ACF801203949086000BF00220103B5
:1022A000374800F0C9FF00BF002036490880C82128
:1022B0002F48FEF7DBF93AA12D48FEF74DF9A8B1FA
:1022C00000203649086005F091F800202B4908608D
:1022D00000BF012211032A4800F0AEFF00BF00201A
:1022E00028490880C8212248FEF7C0F92FA12048BC
:1022F000FEF732F9A0B101202049086000BF00229A
:1023000001031F4800F098FF00BF2BA1002003F03D
:1023100081FA00201B490880C8211548FEF7A6F95C
:1023200000E015E02BA11248FEF716F980B100205D
:102330001249086000BF01221103114800F07CFF20
:1023400000BF00200F490880C8210948FEF78EF918
:102350000C480088962806DB00200A490880C8211E
:102360000348FEF783F94FF4FA7005F04DFB56E78A
:1023700010370020626565703A6F6E001000002013
:1023800000080140B8000020626565703A6F66661B
:1023900000000000736739303A6F6E0014000020AF
:1023A000736739303A6F66660000000077656967C9
:1023B00068743A6F6E000000D2A9C6B7D3E0C1BFFF
:1023C000B2BBD7E3A3ACC7EBBCB0CAB1BCD3D2A9F4
:1023D000000000007765696768743A6F6666000000
:1023E000C0B070E0C8210EA8FEF762F936A101A8BE
:1023F000FDF79CFF01A90EA8FEF7DFF835A101A8A3
:10240000FDF794FF01A90EA8FEF7D7F832A101A8A5
:10241000FDF78CFF01A90EA8FEF7CFF82DA101A8AA
:10242000FDF784FF01A90EA8FEF7C7F82E482FA1DB
:10243000026801A8FDF77AFF01A90EA8FEF7BDF812
:1024400029482DA1426801A8FDF770FF01A90EA837
:10245000FEF7B3F82B482CA1026801A8FDF766FF30
:1024600001A90EA8FEF7A9F82A482BA1026801A825
:10247000FDF75CFF01A90EA8FEF79FF829482AA1E5
:10248000026801A8FDF752FF01A90EA8FEF795F812
:102490002948006806F0B2FA044622460B4627A1F6
:1024A00001A8FDF743FF01A90EA8FEF786F827A1B2
:1024B0000EA8FEF782F800210EA802F043FB4FF4AD
:1024C0007A7005F0A1FA8DE77B22636F6465223A8A
:1024D0000000000022000000687A6E79787874327B
:1024E0003032353131340000180000202C22746560
:1024F0006D70223A256400002C2268756D69223ABD
:1025000025640000100000202C2262656570223ACC
:1025100025640000140000202C2273673930223A11
:10252000256400000C0000202C2274637274353086
:102530003030223A25640000200000202C227765EC
:1025400069676874223A252E316600007D0000001C
:1025500072B600BFFEE7000000B585B000BF1A48A4
:10256000806940F00400184988610846806900F0DD
:102570000400009000BF00BF00BF0846806940F023
:10258000080088610846806900F00800009000BFDC
:1025900000BF00200190029003900490012002905F
:1025A00000200390032004908814019001A907489B
:1025B00000F0A0FC00BF01221103044800F03CFE23
:1025C00000BF05B000BD000000100240000801403F
:1025D0002DE9F04102F0A6F8044600250A480068FB
:1025E00084420ED908480068261A304606F010FBCF
:1025F0008046064906F02EFA074606F0EDFA054633
:1026000000BF2846BDE8F081DC0000200000B84390
:1026100038B5024600230020009000BF92F8240045
:10262000012801D1022038BD012082F8240000BF1A
:102630004868072812D21068406B0C79641E04EBBE
:1026400084051F24AC40A0430D796D1E05EB850564
:102650000C68AC4020431468606327E048680D288C
:1026600012D21068006B0C79E41F04EB84051F2460
:10267000AC40A0430D79ED1F05EB85050C68AC401F
:1026800020431468206311E01068C06A0C790D3C87
:1026900004EB84051F24AC40A0430D790D3D05EBF0
:1026A00085050C68AC4020431468E06208680A287D
:1026B00012D31068C0680C780A3C04EB4405072468
:1026C000AC40A0430D780A3D05EB45058C68AC4055
:1026D00020431468E0600FE0106800690C7804EB98
:1026E00044050724AC40A0430D7805EB45058C68F4
:1026F000AC402043146820610868102802D00868A4
:10270000112827D1174C1068A0421ED1106880688C
:1027100000F40000F0B91068806840F4000014680C
:10272000A0600868102815D10F4800680F4CB0FB56
:10273000F4F000EB80004000009002E00098401EA2
:10274000009000980028F9D104E0906A40F0200041
:102750009062012300BF002082F8240000BF1846C9
:1027600061E70000002401403400002040420F00D7
:1027700001460868C06C70472DE9F0410446002707
:1027800000250026A84614B90120BDE8F081A06804
:1027900010B1207D00B100BFA06A30B90020E06216
:1027A00084F82400204600F089F82046FFF709FB52
:1027B0000746A06A00F01000002873D1002F71D1E5
:1027C000A06A20F4885040F00200A062E1696068CD
:1027D0000843217B40EA41000643A068B0F5807FB2
:1027E00002D0A068012802D14FF4807000E00020E0
:1027F0000543207D012811D1207B38B9A069401EF6
:102800004FF4006141EA4030054307E0A06A40F020
:102810002000A062E06A40F00100E06220684068A9
:1028200020F4694028432168486020688068214975
:102830000840304321688860A068B0F5807F02D0EE
:10284000A068012802D14FF4807000E00020B0F5AC
:10285000807F03D1208A401E4FEA00582068C06A5A
:1028600020F4700040EA08002168C862206880688F
:1028700011490840B04208D10020E062A06A20F06F
:10288000020040F00100A06211E0A06A20F0020006
:1028900040F01000A062E06A40F00100E062012711
:1028A00005E0FFE7A06A40F01000A062012738466B
:1028B0006BE70000FDF7E1FFFE0E1FFF10B586B0CD
:1028C000044600200290039004900590144920686B
:1028D000884222D100BF1348806940F4007011493A
:1028E00088610846806900F40070019000BF00BF55
:1028F00000BF0846806940F004008861084680698E
:1029000000F00400019000BF00BF332002900320BC
:10291000039002A9044800F0EDFA06B010BD0000D3
:10292000002401400010024000080140F8B50446B0
:102930000D46002600200090002700F083FC06468C
:102940002068806800F4807050B1A06A40F02000D8
:10295000A06200BF002084F8240000BF0120F8BD61
:102960002068406800F4807020BB2068C06A00F4D2
:102970007000F8B917E0681CA8B125B100F062FC3E
:10298000801BA8420FD92068006800F0020050B9EF
:10299000A06A40F00400A06200BF002084F8240078
:1029A00000BF0320DBE72068006800F00200002879
:1029B000E1D053E0022000F023FD38490968B1FB63
:1029C000F0F021680969364A114091B92168C96857
:1029D0009211114069B921680969324A114031B92F
:1029E0002168C9689211114009B9142117E0292101
:1029F00015E0216809692B4A114021B92168C9688D
:102A00009211114041B121680969274A114029B941
:102A10002168C968114009B9542100E0FC2100FB7C
:102A200001F718E0681C98B125B100F00BFC801B81
:102A3000A8420DD90098B8420AD2A06A40F004001A
:102A4000A06200BF002084F8240000BF032086E7B6
:102A50000098401C00900098B842E3D36FF0120039
:102A600021680860A06A40F40070A0622068806855
:102A700000F46020B0F5602F0DD1207B58B9A06A1A
:102A800020F48070A062A06A00F4805018B9A06A97
:102A900040F00100A062002061E700003400002047
:102AA00024499224922449124992240070B5044684
:102AB000002500BF94F82400012801D1022070BD38
:102AC000012084F8240000BF2046FFF7A9F905463D
:102AD000002D77D1A06A40F20121884340F4807034
:102AE000A0623C492068884208D13B48006800F455
:102AF000702008B9012002E0002000E0012078B138
:102B0000A06A20F48010A0622068406800F4806011
:102B100000B3A06A20F4005040F48050A06219E095
:102B2000A06A40F48010A0622B49091F20688842E7
:102B300003D028492068884204D12748006800F45F
:102B4000806000E0002028B1A06A20F4005040F42A
:102B50008050A062A06A00F4805020B1E06A20F0AA
:102B60000600E06201E00020E06200BF002084F87F
:102B7000240000BFC01E216808602068806800F43F
:102B80006020B0F5602F16D112492068884208D124
:102B90001148006800F4702008B9012002E000200C
:102BA00000E0012038B12068806840F4A00021686E
:102BB00088600CE006E02068806840F4801021689E
:102BC000886004E000BF002084F8240000BF28468D
:102BD00075E700000028014004240140014600225E
:102BE00091F82100022808D00420886300BF00204B
:102BF00081F8200000BF012070470868006820F0BD
:102C00000E000B6818600868006820F001000B686F
:102C1000186091F8403001209840CB6B586001203B
:102C200081F8210000BF002081F8200000BF10467D
:102C3000E2E7000070B50446002594F82100022860
:102C400003D00420A063012548E02068006820F03C
:102C50000E00216808602068006820F001002168EB
:102C600008601F492068884201D1012026E01C49E4
:102C700014312068884201D110201FE01849283102
:102C80002068884201D1801518E015493C31206840
:102C9000884201D1801411E01149503120688842E6
:102CA00002D14FF4803009E00D4964312068884238
:102CB00002D14FF4801001E04FF0807008490839CC
:102CC0004860012084F8210000BF002084F8200023
:102CD00000BF606B10B12046616B8847284670BD0D
:102CE0000800024070B50446E06B0568206806687D
:102CF00094F84010042088402840002846D006F070
:102D00000400002842D02068006800F0200028B9A4
:102D10002068006820F00400216808605749206896
:102D2000884201D1042027E05449143120688842A8
:102D300001D1402020E0514928312068884201D14A
:102D4000001519E04D493C312068884202D14FF40A
:102D5000804011E0494950312068884202D14FF447
:102D6000802009E0454964312068884202D14FF44F
:102D7000800001E04FF08060404908394860E06A17
:102D800000287AD02046E16A884776E094F840101F
:102D9000022088402840A0B306F0020088B32068D3
:102DA000006800F0200040B92068006820F00A00A8
:102DB00021680860012084F8210030492068884299
:102DC00001D1022028E02D4914312068884201D128
:102DD000202021E0294928312068884201D140156E
:102DE0001AE026493C312068884202D14FF4005055
:102DF00012E0224950312068884203D14FF400305C
:102E00000AE017E01D4964312068884202D14FF47E
:102E1000001001E04FF0007018490839486000BF09
:102E2000002084F8200000BFA06A30B32046A16AC9
:102E3000884722E094F84010082088402840E0B1FC
:102E400006F00800C8B12068006820F00E00216874
:102E5000086094F8401001208840E16B4860012030
:102E6000A06384F8210000BF002084F8200000BF88
:102E7000206B10B12046216B884770BD08000240CE
:102E80000146002209B901207047164B0868C01A94
:102E90001423B0FBF3F08000086412480838C863BC
:102EA000022081F821000868026843F6F07082432E
:102EB000D1E901031843CB6818430B6918434B69E8
:102EC00018438B691843CB691843024308680260B2
:102ED00000208863012081F82100002081F8200073
:102EE00000BFD1E70800024010B50446A0B203F0CD
:102EF000C7FA10BD2DE9F8470346002294466EE15B
:102F00004FF0010808FA02F4D1F8008008EA040042
:102F1000A0427DD1DFF8DCA2D1F80480A8EB0A0939
:102F2000D0453AD014DCB8F1030F50D009DCB8F129
:102F3000000F31D0B8F1010F1CD0B8F1020F49D108
:102F400020E0B8F1110F18D0B8F1120F42D11EE0F5
:102F5000B9F5881F25D006DCB9F5803F20D0B9F53A
:102F6000801F37D11AE0B9F5001F18D0B9F5041F3A
:102F700030D117E0D1F80CC02DE0D1F80C8008F169
:102F8000040C28E0D1F80C8008F1080C23E0D1F8FB
:102F90000C8008F10C0C1EE000BF00BF00BF00BF9A
:102FA00000BF00BFD1F80880B8F1000F02D14FF088
:102FB000040C0BE0D1F80880B8F1010F03D14FF0F9
:102FC000080C1C6102E04FF0080C5C6103E04FF05C
:102FD000000C00E000BF00BFFF2801D8984601E0C8
:102FE00003F104084646FF2802D84FEA820803E0AE
:102FF000A2F108084FEA88084746D6F800804FF04B
:103000000F0909FA07F928EA09080CFA07F900E09C
:1030100088E048EA0908C6F80080D1F8048008F082
:103020008058B8F1805F7DD100BFDFF8CC81D8F83F
:10303000188048F00108DFF8C091C9F81880C84628
:10304000D8F8188008F00108CDF8008000BF00BF54
:103050004FEAB9384FEA920958F829504FEA827876
:103060004FEA18794FF00F0808FA09F825EA080521
:10307000DFF88881434502D14FF0000816E0DFF801
:103080008081434502D14FF001080FE0DFF87481E1
:10309000434502D14FF0020808E0DFF86C81434558
:1030A00002D14FF0030801E04FF004084FEA8279A3
:1030B0004FEA197908FA09F848EA0505DFF84C8162
:1030C0004FEA920948F82950D1F8048008F4801892
:1030D000B8F5801F0AD1DFF83881D8F8008048EAB7
:1030E0000008DFF82C91C9F8008009E0DFF82081A2
:1030F000D8F8008028EA0008DFF81491C9F80080A9
:10310000D1F8048008F40018B8F5001F10D1DFF8DA
:10311000008108F10408D8F8008048EA0008DFF8C8
:10312000F09000E05AE009F10409C9F800800DE0D0
:10313000DFF8DC8008F10408D8F8008028EA0008ED
:10314000DFF8CC9009F10409C9F80080D1F80480B7
:1031500008F40038B8F5003F0ED1DFF8B480A8F1CC
:103160000408D8F8008048EA0008DFF8A490A9F124
:103170000409C9F800800DE0DFF89480A8F1040884
:10318000D8F8008028EA0008DFF88490A9F1040943
:10319000C9F80080D1F8048008F48038B8F5803F81
:1031A0000ED1DFF86C80A8F10808D8F8008048EA52
:1031B0000008DFF85C90A9F10809C9F800800DE06B
:1031C000DFF84C80A8F10808D8F8008028EA000849
:1031D000DFF83C90A9F10809C9F80080521CD1F829
:1031E000008028FA02F8B8F1000F7FF489AEBDE83C
:1031F000F887000000001110001002400008014094
:10320000000C014000100140001401400800014082
:1032100008040140024693680B400BB1012000E016
:103220000020704710B5C26821EA020302EA0104D7
:1032300043EA0443036110BD0AB1016101E00B04DC
:1032400003617047014800687047000028000020B3
:103250000348006803490978084401490860704739
:10326000280000203000002010B50848006840F019
:10327000100006490860032000F0AEF8012000F0BD
:1032800007F800F02BF8002010BD000000200240DD
:1032900070B504460E4800784FF47A71B1FBF0F037
:1032A0000C490968B1FBF0F5284600F029FD08B18A
:1032B000012070BD102C07D200222146501E00F0C4
:1032C0004DF80548046001E00120F2E70020F0E736
:1032D00030000020340000202C00002008B500BF82
:1032E0001448806940F001001249886108468069ED
:1032F00000F00100009000BF00BF00BF0846C06999
:1033000040F08050C8610846C06900F080500090CD
:1033100000BF00BF00220F21901E00F01FF800BF69
:103320000549486820F0E06040F00070486000BF48
:1033300008BD0000001002400000014001460846A0
:10334000002809DB00F01F0301229A4043099B007B
:1033500003F1E023C3F8002100BF70472DE9F05FBF
:1033600080460D461646002702F0D0FF0746394634
:103370002A46334601F00700C0F1070ABAF1040FEC
:1033800002D94FF0040A01E0C0F1070AD14600F16A
:10339000040ABAF1070F02D24FF0000A01E0A0F1CF
:1033A000030AD4464FF0010A0AFA09FAAAF1010AFF
:1033B0000AEA020A0AFA0CFA4FF0010B0BFA0CFBAC
:1033C000ABF1010B0BEA030B4AEA0B042146404622
:1033D00002F0A4FFBDE8F09F00BF00F00702064B1B
:1033E00019684FF6FF031940044B0B4343EA0221CF
:1033F000014B196000BF70470CED00E00000FA05BA
:103400002DE9F04706464FF000080025002700246C
:10341000A146012E31D0022E56D0102E5FD1324857
:103420004468006800F0807008B33048C4F38341FA
:10343000475C04F4803078B12B484068C0F34040CA
:103440002B4911F8008004F4803040B12948B0FBCA
:10345000F8F000FB07F502E0274807FB00F52248DB
:10346000406800F48000B0F5800F01D1A94603E068
:1034700068000321B0FBF1F932E01B48046A04F450
:103480004070B0F5807F05D104F0020010B14FF418
:10349000004918E004F44070B0F5007F07D11248ED
:1034A000406A00F0020010B149F640490BE004F414
:1034B0004070B0F5407F06D10B48006800F4003042
:1034C00008B14FF224490BE000F08CF90649496835
:1034D000C1F38131491C4900B0FBF1F900E000BFA4
:1034E00000BF4846BDE8F08700100240168D000876
:1034F000268D000800127A0000093D00F8B5044648
:1035000000260025207800F0010000286BD000275D
:103510004348C06900F0805070B900BF4048C0699E
:1035200040F080503E49C8610846C06900F08050B4
:10353000009000BF00BF01273A48006800F4807087
:10354000B0B93848006840F4807036490860FFF729
:1035500079FE064606E0FFF775FE801B642801D958
:103560000320F8BD2F48006800F480700028F2D0D6
:103570002B48006A00F440752DB3A08800F4407019
:10358000A84220D02648006A20F440750120264930
:103590000860002008602248056205F0010090B133
:1035A000FFF750FE064608E0FFF74CFE801B41F295
:1035B0008831884201D90320D3E71948006A00F016
:1035C00002000028F0D01648006A20F440706168BC
:1035D000084313490862012F04D10846C06920F04E
:1035E0008050C86100BF207800F00200022807D197
:1035F0000B48406820F44040A168084308494860EF
:10360000207800F01000102807D10548406820F409
:103610008000E1680843024948600020A1E70000FB
:1036200000100240007000404004424270B5044661
:103630000D460CB9012070BD5A48006800F0070023
:10364000A8420ED25748006820F007002843554989
:1036500008600846006800F00700A84201D0012079
:10366000E9E7207800F0020002281DD1207800F060
:103670000400042805D14C48406840F4E0604A4901
:103680004860207800F00800082805D146484068C6
:1036900040F46050444948604348406820F0F000DE
:1036A000A168084340494860207800F0010078B3E1
:1036B0006068012806D13C48006800F4003090B9E9
:1036C0000120B8E76068022806D13748006800F09A
:1036D000007040B90120AEE73348006800F00200F6
:1036E00008B90120A7E73048406820F0030061686E
:1036F00008432D494860FFF7A5FD064609E0FFF79E
:10370000A1FD801B41F28831884202D9032092E753
:1037100007E02548406800F00C006168B0EB810FBD
:10372000EDD12048006800F00700A8420ED91D48DE
:10373000006820F0070028431A490860084600681E
:1037400000F00700A84201D0012074E7207800F0C3
:103750000400042807D11448406820F4E060E168C0
:10376000084311494860207800F00800082808D173
:103770000D48406820F46050216940EAC1000A49C0
:10378000486000F03FF808494968C1F30311074A4F
:10379000515CC8400649086006480068FFF778FD9C
:1037A000002048E70020024000100240288D000859
:1037B000340000202C000020014800687047000001
:1037C0003400002000B5FFF7F7FF04494968C1F352
:1037D0000221034A515CC84000BD000000100240B5
:1037E000388D000800B5FFF7E7FF04494968C1F3C9
:1037F000C221034A515CC84000BD000000100240D5
:10380000388D000870B5002100220024002300201C
:10381000134D696801F00C05F5B1042D02D0082D97
:1038200019D101E00F4819E00F4DC1F38346AB5D9C
:1038300001F4803555B10A4D6D68C5F340450B4E16
:10384000725D084D5D43B5FBF2F402E0084D03FBE9
:1038500005F4204602E000BF024800BF00BF70BD73
:103860000010024000127A00048D0008148D000838
:1038700000093D00F8B504460CB90120F8BD2078D8
:1038800000F00100002878D0F848406800F00C00F3
:1038900004280CD0F548406800F00C00082811D12D
:1038A000F248406800F48030B0F5803F0AD1EF481C
:1038B000006800F4003000285FD0606800285CD108
:1038C0000120DBE700BF6068B0F5803F06D1E74824
:1038D000006840F48030E549086028E0606858B925
:1038E000E248006820F48030E0490860084600683B
:1038F00020F4802008601AE06068B0F5A02F0BD19A
:10390000DA48006840F48020D8490860084600681A
:1039100040F4803008600AE0D448006820F4803029
:10392000D24908600846006820F48020086000BF83
:10393000606888B1FFF786FC054606E0FFF782FC69
:10394000401B642801D9032098E7C848006800F4A8
:1039500000300028F2D010E0FFF774FC054606E0C6
:10396000FFF770FC401B642801D9032086E7BF489D
:10397000006800F400300028F2D1207800F0020046
:10398000022857D1B948406800F00C0050B1B74840
:10399000406800F00C00082818D1B448406800F4D2
:1039A000803098B9B148006800F0020020B1206969
:1039B000012801D0012061E7AC48006820F0F80040
:1039C000616940EAC100A949086033E02069E8B1B3
:1039D0000120A7490860FFF735FC054606E0FFF720
:1039E00031FC401B022801D9032047E79F480068AB
:1039F00000F002000028F2D09C48006820F0F80097
:103A0000616940EAC1009949086013E000209849C3
:103A10000860FFF717FC054606E0FFF713FC401BA4
:103A2000022801D9032029E79048006800F002002D
:103A30000028F2D1207800F0080008282DD1A069D4
:103A4000B8B101208B490860FFF7FCFB054606E092
:103A5000FFF7F8FB401B022801D903200EE783483B
:103A6000406A00F002000028F2D0012001F0BEFE02
:103A700013E000207F490860FFF7E4FB054606E0FD
:103A8000FFF7E0FB401B022801D90320F6E6774848
:103A9000406A00F002000028F2D1207800F0040013
:103AA000042873D100277148C06900F0805070B9B4
:103AB00000BF6E48C06940F080506C49C86108463C
:103AC000C06900F08050009000BF00BF01276A4825
:103AD000006800F48070B0B96748006840F48070F6
:103AE00065490860FFF7AEFB054606E0FFF7AAFB55
:103AF000401B642801D90320C0E65F48006800F439
:103B000080700028F2D000BFE068012806D1574835
:103B1000006A40F001005549086227E0E06858B9A2
:103B20005248006A20F00100504908620846006AC5
:103B300020F00400086219E0E06805280BD14B482A
:103B4000006A40F00400494908620846006A40F0F3
:103B5000010008620AE04548006A20F0010043497C
:103B600008620846006A20F00400086200BFE068AE
:103B7000A0B1FFF767FB054609E0FFF763FB401BB9
:103B800041F28831884202D9032077E622E03748A3
:103B9000006A00F002000028EFD012E0FFF752FBAD
:103BA000054608E0FFF74EFB401B41F28831884292
:103BB00001D9032062E62D48006A00F002000028C7
:103BC000F0D1012F05D12948C06920F08050274944
:103BD000C86100BFE069C8B32448406800F00C0029
:103BE000082860D0E069022848D1002020490866F2
:103BF000FFF728FB054606E0FFF724FB401B0228E1
:103C000001D903203AE61948006800F00070002846
:103C1000F2D1206AB0F5803F07D11448406820F403
:103C20000030A168084311494860D4E908010843FD
:103C30000E49496821F4741108430C494860012079
:103C40000B490866FFF7FEFA054607E03DE0FFF77F
:103C5000F9FA401B022801D903200FE60348006847
:103C600000F000700028F2D02FE0000000100240A9
:103C7000000042428004424200700040002014498B
:103C80000866FFF7DFFA054606E0FFF7DBFA401BA0
:103C9000022801D90320F1E50E48006800F0007009
:103CA0000028F2D111E0E069012800D1E6E50948D9
:103CB000466806F48031206A814204D106F470110E
:103CC000606A814201D00120D8E50020D6E50000DD
:103CD0000000424200100240042808D14FF0E021C9
:103CE000096941F004014FF0E022116107E04FF053
:103CF000E021096921F004014FF0E02211617047D1
:103D000070B504462546681EB0F1807F01D30120BE
:103D10000FE0681E4FF0E02148610F214FF0FF30A7
:103D200002F0FCFA00204FF0E021886107200861D2
:103D3000002070BD30B502460B4600BF92F83C0033
:103D4000012801D1022030BD012082F83C0000BFD3
:103D5000022082F83D00106844681068816824F0F1
:103D600070041868044310684460104D1068A8423D
:103D70000BD01068B0F1804F07D00D4D1068A842ED
:103D800003D00C4D1068A84205D121F0800158687D
:103D9000014310688160012082F83D0000BF0020CF
:103DA00082F83C0000BF00BFCDE70000002C0140BE
:103DB00000040040000800402DE9F04104460D4693
:103DC0001646002700BF94F83C00012802D10220CB
:103DD000BDE8F081012084F83C0000BF36B1042E1C
:103DE0001BD0082E31D00C2E5ED145E0294620682C
:103DF00001F028FE2068806940F008002168886191
:103E00002068806920F0040021688861206880694A
:103E1000296908432168886148E02946206801F043
:103E200041FE2068806940F4006021688861206854
:103E3000806920F480602168886120688069296930
:103E400040EA01202168886130E02946206801F0BD
:103E50005DFE2068C06940F008002168C8612068E4
:103E6000C06920F004002168C8612068C069296920
:103E700008432168C86119E02946206801F07AFEEC
:103E80002068C06940F400602168C8612068C0698A
:103E900020F480602168C8612068C069296940EA0F
:103EA00001202168C86101E0012700BF00BF00BFF9
:103EB000002084F83C0000BF384689E710B504466E
:103EC0000CB9012010BD94F83D0028B9002084F8F9
:103ED0003C00204600F026F8022084F83D00211D19
:103EE000206801F05BFD012084F8460000BF84F8E3
:103EF0003E0001213F200155402001554120015540
:103F000000BF00BF012084F8420043200155442037
:103F100001554520015500BF012084F83D000020D7
:103F2000D0E7000008B50A4A016891420FD100BFEE
:103F300000BF0849C96941F00201064AD161114632
:103F4000C96901F00201009100BF00BF00BF08BDB8
:103F5000000400400010024070B504460D4615B93B
:103F600094F83E000BE0042D02D13F20005D06E0F6
:103F7000082D02D14020005D01E04120005D0128B4
:103F800001D0012070BD1DB9022084F83E000EE072
:103F9000042D03D102213F20015508E0082D03D153
:103FA00002214020015502E0022141200155012259
:103FB0002946206801F034FD19492068884201D162
:103FC000012000E0002028B12068406C40F400404F
:103FD000216848641249206888420BD02068B0F1FB
:103FE000804F07D00F492068884203D00E492068CF
:103FF00088420CD12068806800F00706062E0CD09D
:104000002068006840F001002168086005E0206831
:10401000006840F00100216808600020B2E700005D
:10402000002C014000040040000800407047704729
:104030002DE9F84F0446206805682068C6682068A6
:1040400047694FF00009CA4605F00F09B9F1000FA2
:104050000AD105F0200038B106F0200020B120463A
:1040600001F0FCFDBDE8F88FB9F1000F7BD007F03F
:10407000010018B906F49070002874D005F0010012
:1040800030B106F4807018B1606C40F001006064DB
:1040900005F0040030B107F0010018B1606C40F089
:1040A0000200606405F0020030B107F0010018B1B1
:1040B000606C40F00400606405F0080048B106F050
:1040C000200010B907F0010018B1606C40F0080042
:1040D0006064606C002845D005F0200028B106F02F
:1040E000200010B1204601F0B9FD20684069C0F3FE
:1040F000801A606C00F0080010B9BAF1000F2CD0E3
:10410000204601F065FD2068406900F0400000B3E2
:1041100000BF00BF2168143151E8001F21F04000AA
:104120002168143141E80002002AF3D100BFE06B9E
:1041300050B17748E16B4863E06BFEF77BFD88B1D7
:10414000E06B416B88470DE02046FFF770FF09E008
:1041500009E02046FFF76BFF04E02046FFF767FF0A
:10416000002060647EE7206B012877D105F0100005
:10417000002873D006F010000028FAD000BF0020FD
:10418000009020680068009020684068009000BFA0
:1041900000BF2068406900F0400000285FD0E06B5D
:1041A000006840681FFA80F8B8F1000F55D0A08D64
:1041B000404552DDA4F82E80E06B8069202843D072
:1041C00000BF00BF21680C3151E8001F21F480704E
:1041D00021680C3141E80002002AF3D100BF00BF82
:1041E00000BF2168143151E8001F21F0010021684F
:1041F000143141E80002002AF3D100BF00BF00BF24
:104200002168143151E8001F21F040002168143169
:1042100041E80002002AF3D100BF202084F84200C8
:104220000020206300BF00BF21680C3151E8001F4F
:1042300021F0100021680C3141E80002002AF3D17E
:1042400000BFE06BFEF7CAFC02206063A08DE28D28
:10425000801A81B22046FFF7E9FE03E742E0A08D15
:10426000E18D401A1FFA80F8E08DD0B3B8F1000F4D
:1042700037D000BF00BF21680C3151E8001F21F486
:10428000907021680C3141E80002002AF3D100BF90
:1042900000BF00BF2168143151E8001F21F0010068
:1042A0002168143141E80002002AF3D100BF202028
:1042B00084F842000020206300BF00BF21680C3159
:1042C00051E8001F21F0100021680C3141E8000284
:1042D000002AF3D100BF0220606341462046FFF769
:1042E000A5FEBFE605F0800030B106F0800018B1F1
:1042F000204601F0CFFDB5E605F0400030B106F0F4
:10430000400018B1204601F099FCABE600BFA9E6D9
:10431000BD5B000810B504460CB9012010BDA069B2
:1043200000B100E000BF94F8410028B9002084F8F3
:104330004000204600F02AF8242084F8410020683C
:10434000C06820F400502168C860204601F004FDD8
:104350002068006920F49040216808612068406965
:1043600020F02A00216848612068C06840F40050AD
:104370002168C86000206064202084F8410084F82F
:1043800042000020606300BFC8E7000010B586B09F
:10439000044600200290039004900590664920682E
:1043A000884237D100BF6548806940F48040634946
:1043B00088610846806900F48040019000BF00BF1A
:1043C00000BF0846806940F00400886108468069A3
:1043D00000F00400019000BF00BF481502900220C9
:1043E00003900320059002A95548FEF783FD4FF482
:1043F0008060029000200390049002A95048FEF7CC
:1044000079FD002205212520FEF7A8FF2520FEF7D3
:1044100095FF8EE04B492068884236D100BF47485F
:10442000C06940F400304549C8610846C06900F4DD
:104430000030019000BF00BF00BF0846806940F017
:10444000040088610846806900F00400019000BF04
:1044500000BF04200290022003900320059002A9CF
:104460003748FEF747FD0820029000200390049093
:1044700002A93348FEF73EFD002205212620FEF763
:104480006DFF2620FEF75AFF53E02F49206888422F
:104490004FD100BF2948C06940F480202749C86136
:1044A0000846C06900F48020019000BF00BF00BF33
:1044B0000846806940F0080088610846806900F07D
:1044C0000800019000BF00BF081502900220039071
:1044D0000320059002A91D48FEF70CFD4FF4006073
:1044E000029000200390049002A91848FEF702FDF4
:1044F000174818490860002048600021154881606D
:104500008021C1600021016141618161C161FEF7CB
:10451000B7FC08B1FEF71CF800BF0E48E063446228
:1045200000BF002205212720FEF718FF2720FEF7F5
:1045300005FF06B010BD0000003801400010024029
:10454000000801400044004000480040000C0140C9
:1045500030000240F801002070B504460D461646B2
:1045600094F8420020280BD105B10EB9012070BD8E
:104570000020206332462946204601F06BFCF6E716
:104580000220F4E710B5044614492068884223D17C
:10459000134814490988405C202815DB104811494C
:1045A0000988405C7E280FDC206840680C490D4A71
:1045B000128888540B480088401C0A490880002053
:1045C0000749084A128888540548064A1288811803
:1045D00001220548FFF7C0FF10BD00000044004065
:1045E00010370020B8000020680100202DE9F84FA6
:1045F00004460E46174699464FF0000A94F84100CB
:10460000202850D106B117B90120BDE8F88F00204D
:104610006064212084F84100FEF714FE8246A784DE
:10462000E784A068B0F5805F04D1206910B9002547
:10463000B04602E035464FF000081EE05346002227
:1046400080212046CDF8009001F054FC20B12020BC
:1046500084F841000320D8E745B9B8F80000C0F35A
:1046600008002168486008F1020803E02878216802
:1046700048606D1CE08C401EE084E08C0028DDD199
:104680005346002240212046CDF8009001F032FC34
:1046900020B1202084F841000320B6E7202084F8D0
:1046A00041000020B1E70220AFE7704700B585B0B8
:1046B0000020019002900390049000BF00BF1648B4
:1046C000806940F00800144988610846806900F05C
:1046D0000800009000BF00BF00BF08150190012036
:1046E0000290002003900320049001A90B48FEF7DC
:1046F00001FC4FF40060019000200290039001A99A
:104700000648FEF7F7FB642001F0BAFE00F00AF855
:104710000349086005B000BD00100240000C0140D4
:10472000DC00002070B5002400224FF4806119489D
:10473000FEF782FD00BF4FF400611648FEF76AFDE8
:104740000128F8D0002514E0012291021148FEF75B
:1047500073FD640000224FF480610E48FEF76CFD8B
:104760004FF400610B48FEF755FD012800D1641C91
:104770006D1C182DE8D3012291020648FEF75CFD5E
:1047800084F4000400224FF480610248FEF754FDD7
:10479000204670BD000C014000BFFEE730B5024668
:1047A000012A01DB032A01DD002030BD501E064C2A
:1047B000235C3BB111B1054C205C08700024501EF5
:1047C000014D2C541846F0E7E7000020EA000020D5
:1047D00010B586B000BF3148806940F004002F4911
:1047E00088610846806900F00400019000BF00BFA6
:1047F00000BF0846806940F008008861084680696B
:1048000000F00800019000BF00BF00BF08468069AB
:1048100040F0100088610846806900F010000190A7
:1048200000BF00BF00200290039004900590039009
:1048300003200590012004904003029002A918482B
:10484000FEF758FB012004904003029002A914488F
:10485000FEF750FB012004904003029002A910488B
:10486000FEF748FB0F4800230122142100900EA000
:1048700003F0F8FF104908600846006858B103F0DB
:1048800029FE0446002003462246012100900A48E2
:10489000006804F03FF806B010BD000000100240B0
:1048A000000C0140A57500084B65795363616E5497
:1048B000696D657200000000E000002022E0012523
:1048C0001BE000212846FFF769FF04469CB1012C3C
:1048D00004D0022C06D0032C0CD107E000200A499A
:1048E000086007E000200849086003E0002006494E
:1048F000086000BF00BF681CC5B2032DE1DD0A20BF
:1049000003F082F8DBE7000014000020FEB5064645
:104910000F4615463046FBF731FE02903846FBF74E
:104920002DFE01902846FBF729FE009000208049CB
:10493000088002980C300199891C01440098801C61
:104940000C1810227A490888411C794B1980794942
:104950000A5400BF2046E21704EB5262D211A4EBC6
:10496000C212D1B2E21704EB5262D411002C01DD65
:1049700041F080016E4A1088421C6D4B1A806D4ACE
:104980001154002CE6DC002219460888411C1980CD
:1049900068490A54042219460888411C198065494F
:1049A0000A544D2219460888411C198061490A544D
:1049B000512219460888411C19805E490A54542224
:1049C00019460888411C19805A490A541946088812
:1049D000411C198057490A54042219460888411C71
:1049E000198054490A54C22219460888411C19806A
:1049F00050490A54002219460888411C19804D4923
:104A00000A543C2219460888411C198049490A5415
:104A10009DF8092019460888411C198045490A5407
:104A20009DF8082019460888411C198041490A54FC
:104A30001A46128888183146029AFBF7CAFD3C488C
:104A40000088029908443A490880019800281CDD32
:104A50009DF805200888411C354B198035490A54BA
:104A60009DF8042019460888411C198031490A54D0
:104A70001A46128888183946019AFBF7AAFD2C4875
:104A80000088019908442A490880009800281DDD03
:104A90009DF8012026490888411C254B198025498D
:104AA0000A549DF8002019460888411C19802149A4
:104AB0000A541A46128888182946009AFBF789FD7D
:104AC0001B48008800990844194908804FF47A70FF
:104AD00001F0D6FC002018490880C8211748FBF7D0
:104AE000C5FD13480188134800F0BAF84FF47A70F6
:104AF00001F0C6FC11480078202817D10F484078F3
:104B0000022813D10D48807880B90C48C07868B964
:104B10000A4800780A490978884207D1074840784E
:104B200007494978884201D10120FEBD0020FCE7F9
:104B3000C0000020D8370020B80000201037002027
:104B4000408D0008F8B507460E460E200090384606
:104B5000FBF714FD054600203A4908801EB1009875
:104B6000001D441902E00098801C44193022354988
:104B70000888411C334B198033490A5400BF204632
:104B8000E21704EB5262D211A4EBC212D1B2E217C7
:104B900004EB5262D411002C01DD41F08001294A5E
:104BA0001088421C274B1A80274A1154002CE6DC3F
:104BB0009DF8012019460888411C198022490A5491
:104BC0009DF8002019460888411C19801E490A5486
:104BD0001A46128888181DA1009AFBF7FAFC19489A
:104BE00000880099084417490880AEB11B494A78EB
:104BF00014490888411C134B198013490A5417495A
:104C00000A7819460888411C19800F490A5413482C
:104C10000088401C114908800B490A4A12888818EC
:104C20002A463946FBF7D5FC064800882844054942
:104C3000088008460188044800F012F801480088FE
:104C4000C0B2F8BDC0000020D8370020687A6E7965
:104C5000787874323032353131340000C2000020AF
:104C600010B50246002000BF0B4B1B6803F0400349
:104C7000002BF9D000200BE0135C074C241D2360AF
:104C800000BF054B1B6803F04003002BF9D0401C0C
:104C90008842F1DB10BD000000440040F8B5064634
:104CA0000F4615460020474908803046FBF766FC52
:104CB00000900098001D0DB1012100E00021441872
:104CC00045B182223F490888411C3E4B19803E492C
:104CD0000A5407E0A2223B490888411C394B19803D
:104CE00039490A5400BF2046E21704EB5262D21140
:104CF000A4EBC212D1B2E21704EB5262D411002C21
:104D000001DD41F080012F4A1088421C2D4B1A8092
:104D10002D4A1154002CE6DC002219460888411C5B
:104D2000198029490A54012219460888411C198012
:104D300025490A549DF8012019460888411C19800C
:104D400021490A549DF8002019460888411C198001
:104D50001D490A541A46128888183146009AFBF7F2
:104D600038FC1848008800990844164908802DB17D
:104D70000888411C134A118013490F544FF47A706C
:104D800001F07EFB002011490880C8211048FBF784
:104D90006DFC0C4801880C48FFF762FF4FF47A70F5
:104DA00001F06EFB0A4800780A490978884207D169
:104DB0000748407807494978884201D10120F8BD69
:104DC0000020FCE7C0000020D8370020B8000020F9
:104DD000103700204A8D00080EB500200090019089
:104DE0000290124812490860002111488160017345
:104DF00001754FF46021C16100200D494860012117
:104E00000B480161FDF7B8FC08B1FDF7A1FB0020DC
:104E10000090012001900020029069460448FDF7AF
:104E2000F7FB08B1FDF794FB0EBD00000024014024
:104E3000F00000201CB54FF4FA70FEF755F800F0B2
:104E400020FA08233BA21021002000F069FB00F0AB
:104E5000EFFBFDF781FBFFF729FC02F0D9FA0020F8
:104E600002F0C4FAFDF75AF801F064FB68B100F0F3
:104E70001FF9062332A22021002000F051FB00F090
:104E8000D7FB4FF4FA70FEF72FF801F0BFF948B9DD
:104E900000F00EF906232DA22021002000F040FB97
:104EA00000F0C6FBFFF794FC0020012103460A0234
:104EB000CDE9001029A12C4803F06CFA0020012153
:104EC00003460A02CDE9001028A12C4803F062FA3B
:104ED0000020012103460A02CDE9001028A12C4838
:104EE00003F058FA0020012103460A02CDE9001020
:104EF00028A12B4803F04EFA2A4A00212A4801F043
:104F000021FC2A4908600020012103468022CDE9C6
:104F1000001027A1294803F03DFA00200121034693
:104F20000A02CDE9001026A1284803F033FA00F068
:104F3000BFF81CBD737461727420696E69740000DF
:104F400020496E6974204661696C00007769666962
:104F500020496E6974204661696C00004F6C65647D
:104F60005F53686F77000000E95600084553505FB3
:104F7000526563656976655461736B001D22000894
:104F80004553505F53656E645461736B00000000BD
:104F9000E123000853656E736F725F5461736B0099
:104FA000AD580008E08C0008F1580008000000200F
:104FB0004B65795F5461736B00000000BD480008C9
:104FC000616C6572745F7461736B0000A1630008AB
:104FD00000B585B00020019002900390049000BFBE
:104FE0001048806940F010000E49886108468069C9
:104FF00000F01000009000BF00BF00224FF40051ED
:105000000948FEF719F94FF4005001900120029071
:10501000002003900220049001A90348FDF76AFFD5
:1050200005B000BD001002400010014010B50B4853
:105030000B4908604FF41650486000210848816011
:10504000C16001610C21416100218161C161FFF7F3
:1050500061F908B1FDF77CFA10BD0000003801408D
:105060002001002010B50D480D4908604FF4E130D3
:10507000486000210A488160C16001610C214161E2
:1050800000218161C161FFF745F908B1FDF760FAC0
:10509000012204490248FFF75FFA10BD00440040B6
:1050A000680100201037002000BFFEE700BFFEE7C8
:1050B00000200CE0002106E00022064B03EBC013A9
:1050C0005A544A1CD1B28029F6DB421CD0B20828BF
:1050D000F0DB7047A03800202DE9F04304460D4670
:1050E00016461F46284638E0224631E0002A2DDBCE
:1050F0007F2A2BDC002829DB3F2827DC4FEAE07CD5
:1051000000EB5C7C4FEAEC0CDFF8588008EBCC1C21
:105110001CF802C003464FEAE07800EB58784FEAEB
:10512000E808A0EBC8094FF0010808FA09F82CEAD2
:10513000080C01464FEAE07800EB58784FEAE8089F
:10514000DFF8209009EBC81808F802C0511C0AB219
:10515000A1199142CADC411C08B2E9198142C3DCA1
:10516000BDE8F083A038002000B585B00020019094
:1051700002900390049000BF1448806940F008003A
:10518000124988610846806900F00800009000BF5D
:1051900000BF881501900120029003900320049025
:1051A00001A90B48FDF7A6FE112002904FF40070F4
:1051B000019001A90648FDF79DFE012000F04CFA80
:1051C000012000F059FA05B000BD000000100240B7
:1051D000000C014070B50446002512E0E00900F023
:1051E0004BFA022001F056F9012000F035FA0220B6
:1051F00001F050F9002000F02FFA6006040E681C40
:10520000C5B2082DEADB012000F036FA022001F0D9
:1052100041F9012000F020FA022001F03BF90020C2
:1052200000F01AFA022001F035F970BD10B5012026
:1052300000F022FA012000F00FFA022001F02AF912
:10524000002000F019FA022001F024F9002000F0FB
:1052500003FA022001F01EF910BD10B5002000F085
:105260000BFA022001F016F9012000F0F5F90220F6
:1052700001F010F9012000F0FFF9022001F00AF915
:1052800010BD10B5FFF770FFAE2000F005FAD52075
:1052900000F002FA802000F0FFF9A82000F0FCF9ED
:1052A0003F2000F0F9F9D32000F0F6F9002000F0DB
:1052B000F3F9402000F0F0F9A12000F0EDF9C8204A
:1052C00000F0EAF9DA2000F0E7F9122000F0E4F942
:1052D000812000F0E1F9CF2000F0DEF9D92000F0C4
:1052E000DBF9F12000F0D8F9DB2000F0D5F930200F
:1052F00000F0D2F9A42000F0CFF9A62000F0CCF9FC
:105300008D2000F0C9F9142000F0C6F9AF2000F09C
:10531000C3F9FFF7CDFE00F08BF910BD10B50246C2
:10532000012000E050430B1EA1F10101FAD110BD94
:105330000FB470B58EB005460E46144616A8009000
:1053400001A8009A1599FAF7DFFF00200090234684
:1053500001AA3146284600F0E3F80EB070BC5DF8B3
:1053600014FB70B505460C4645F0B00000F094F90A
:10537000102141EA141000F08FF904F00F0000F042
:105380008BF970BDF8B506460F4614461D46082D2C
:105390000CD1A4F120000E4901EB001010230822CB
:1053A00039460090304600F017F80FE0062D0DD179
:1053B000A4F1200000EB4000064901EB4000082367
:1053C000062239460090304600F006F8F8BD00008D
:1053D0006B8D00085B9300082DE9FF4F80460E4659
:1053E0009146DDF834B0002500244A463146404657
:1053F000039BFFF771FE00BF5EE0002558E008EB5D
:105400000500002852DB08EB05007F284EDC304603
:10541000F11706EB5171C9100FB2F11706EB51717C
:10542000C910A6EBC10A002E05DA781E07B20AF1F0
:1054300008000FFA80FA3819002817DB38190728F6
:1054400014DC3819224901EBC01008EB0501405C5F
:1054500004FB09511BF8011001FA0AF1084339193C
:105460001B4A02EBC11108EB050288543819401C95
:1054700000281BDB3819401C072817DC3819401C92
:10548000134901EBC01008EB0501405C04FB095116
:105490001BF80110CAF10802114108433919491CCF
:1054A0000B4A02EBC11108EB05028854681CC5B217
:1054B0004D45A4DB601CC4B20399481EC11700EB24
:1054C0005171012202EBE101A14296DCBDE8FF8FA0
:1054D000A03800202DE9F0470646894617461D46AC
:1054E000DDF82080002417E0281B411E0A20FFF76A
:1054F00015FFB7FBF0F00A21B0FBF1F201FB12003F
:1055000000F1300A04FB086108B24346524649469E
:10551000FFF738FF601CC4B2AC42E5DBBDE8F087A2
:105520002DE9FE4F07468A46144698460025AB46AD
:10553000002672E0605D00F0800058B94FF0010B6A
:105540002846691C8DB2205C8DF8040000208DF87F
:10555000050013E04FF0020B2846691C8DB2205C59
:105560008DF80400605D00B95AE02846691C8DB2D0
:10557000205C8DF8050000208DF80600BBF1010FBE
:105580000BD19DF80420B91908B243465146FFF7E4
:10559000F9FE06EB080086B23FE04FF000090EE08E
:1055A000C9EBC90101EB81011F4A881801A9FBF76A
:1055B000A7F800B90EE009F101001FFA80F9C9EB64
:1055C000C90101EB8101184A881818A1FBF798F866
:1055D0000028E5D100BFB8F1080F12D1C9EBC9000E
:1055E00000EB800010490844C01CB919009008B2B3
:1055F00010231A465146FFF7EFFE06F1100086B25F
:105600000BE0B8F1060F08D1B91908B206233F2202
:105610005146FFF7B7FEB01D86B2605D002889D104
:1056200000BFBDE8FE8F0000959500080000000057
:1056300010B500240BE000212046FFF792FE05493B
:1056400001EBC410802100F037F8601CC4B2082CB4
:10565000F1DB10BDA038002010B504460CB10120CC
:1056600000E0002002464FF480710248FDF7E4FD9F
:1056700010BD0000000C014010B504460CB1012023
:1056800000E0002002464FF400710248FDF7D4FD0F
:1056900010BD0000000C014010B50446FFF7C6FD28
:1056A0007820FFF797FD0020FFF794FD2046FFF7D5
:1056B00091FDFFF7D2FD10BD70B505460E46FFF710
:1056C000B5FD7820FFF786FD4020FFF783FD00241D
:1056D00004E0285DFFF77EFD601CC4B2B442F8DB35
:1056E000FFF7BBFD70BD00001CB554E0FFF7E0FC08
:1056F000294840682849096828A30622CDE90010F6
:1057000000210846FFF714FE2948006803F076F9E7
:1057100028A30622CDE900010C210020FFF708FE96
:105720002948006829A30622182100900020FFF7CD
:10573000FFFD062000902A48027902232421002040
:10574000FFF7C8FE062327A224211420FFF7E8FE56
:105750000620009022484279022324211E20FFF7D0
:10576000B9FE06231FA224213220FFF7D9FE06200E
:1057700000901B488279022324213C20FFF7AAFED7
:10578000FFF756FF4FF400511748FDF74BFD4FF45C
:10579000FA7002F039F9A9E718000020543A25649C
:1057A000202020483A2564202020202000000000EE
:1057B000200000205765696768743A252E316667B6
:1057C00020202020202000000C00002054435254B0
:1057D000353030303A2564202020202000000000A1
:1057E000CA0000203A0000000010014008B5084936
:1057F0000968C9084FF47A72B1FBF2F14143009194
:1058000000BF00BF00994A1E00920029F9D108BDCF
:10581000340000200FB4F0B5B3B007463AA8199091
:105820001AA8199A3999FAF76FFD002019901AA849
:10583000FAF7A4FEC5B200260024FD208DF8000072
:1058400000208DF80100E81CC0B28DF80200012094
:105850008DF8030040EA0710C0B28DF8040000BFC5
:1058600003E01DF804004640641C052CF9D3002415
:1058700003E01AA8005D4640641CAC42F9D32A46F6
:105880001AA90DF10500FAF7A4FE681D0DF80060D5
:10589000AA1D4FF0FF3369460348FEF7A7FE33B059
:1058A000F0BC5DF814FB00002001002018E00D485A
:1058B00000F0A5FE012000F05DFD0B490860FCF73B
:1058C00087FE044603F0A4F90849086001F074FF5C
:1058D000FCF762FB01F09AFF4FF47A7002F094F843
:1058E000E5E70000180000200C0000202000002048
:1058F00000BF40F6B83002F087F8FAE710B54FF075
:10590000E0200069FDF7A4FC02F0D4FD012801D0DD
:1059100002F01EFA10BD00B593B0282109A8FAF7CD
:10592000C7FE142104A8FAF7C3FE002000900190DE
:10593000029003900120099000040A9000200B902F
:1059400001200D9002201090C10311914FF4E0113D
:10595000129109A8FDF78EFF08B1FCF7F9FD0F20A1
:10596000049002200590002006904FF4806007907C
:1059700000200890022104A8FDF758FE08B1FCF7AA
:10598000E7FD02200090800302906846FDF7B6FD17
:1059900008B1FCF7DDFD13B000BD704710B502681B
:1059A0001C4B984208D0B0F1804F05D01A4B98425A
:1059B00002D01A4B984203D122F070024B681A436E
:1059C000144B984208D0B0F1804F05D0124B98424A
:1059D00002D0124B984203D122F44072CB681A4392
:1059E00022F080034C6943EA040202608B68C362C0
:1059F0000B688362074B984201D10B690363012353
:105A00004361036903F001031BB1036923F0010340
:105A1000036110BD002C014000040040000800405C
:105A200030B501F01F05012404FA05F3046A9C4314
:105A30000462046A01F01F0502FA05F52C430462B2
:105A400030BD000030B5026A056A25F00105056227
:105A50004368846924F0700424F003040D682C4327
:105A600022F002028D682A430D4DA84206D100BFE4
:105A700022F00802CD682A4322F00402084DA84211
:105A800007D123F4807323F400734D692B438D6990
:105A90002B43436084614D684563026230BD000062
:105AA000002C014030B5026A056A25F01005056238
:105AB0004368846924F4E04424F440740D6844EAA3
:105AC000052422F020028D6842EA05120E4DA842FC
:105AD00007D100BF22F08002CD6842EA051222F011
